{
	"contracts/hello.sol": {
		"Main": {
			"abi": [
				{
					"inputs": [],
					"name": "printMessage",
					"outputs": [
						{
							"internalType": "string",
							"name": "",
							"type": "string"
						}
					],
					"stateMutability": "view",
					"type": "function"
				},
				{
					"inputs": [
						{
							"internalType": "string",
							"name": "userName",
							"type": "string"
						}
					],
					"name": "setUserName",
					"outputs": [],
					"stateMutability": "nonpayable",
					"type": "function"
				}
			],
			"devdoc": {
				"kind": "dev",
				"methods": {},
				"version": 1
			},
			"evm": {
				"assembly": "    /* \"contracts/hello.sol\":70:567  contract Main {... */\n  mstore(0x40, 0x80)\n  callvalue\n  dup1\n  iszero\n  tag_1\n  jumpi\n  0x00\n  dup1\n  revert\ntag_1:\n  pop\n  dataSize(sub_0)\n  dup1\n  dataOffset(sub_0)\n  0x00\n  codecopy\n  0x00\n  return\nstop\n\nsub_0: assembly {\n        /* \"contracts/hello.sol\":70:567  contract Main {... */\n      mstore(0x40, 0x80)\n      callvalue\n      dup1\n      iszero\n      tag_1\n      jumpi\n      0x00\n      dup1\n      revert\n    tag_1:\n      pop\n      jumpi(tag_2, lt(calldatasize, 0x04))\n      shr(0xe0, calldataload(0x00))\n      dup1\n      0x2b5914fe\n      eq\n      tag_3\n      jumpi\n      dup1\n      0x54f8cd2e\n      eq\n      tag_4\n      jumpi\n    tag_2:\n      0x00\n      dup1\n      revert\n        /* \"contracts/hello.sol\":108:192  function setUserName(string memory userName) public {... */\n    tag_3:\n      tag_5\n      0x04\n      dup1\n      calldatasize\n      sub\n      dup2\n      add\n      swap1\n      tag_6\n      swap2\n      swap1\n      tag_7\n      jump\t// in\n    tag_6:\n      tag_8\n      jump\t// in\n    tag_5:\n      stop\n        /* \"contracts/hello.sol\":198:565  function printMessage() public view returns(string memory) {... */\n    tag_4:\n      tag_9\n      tag_10\n      jump\t// in\n    tag_9:\n      mload(0x40)\n      tag_11\n      swap2\n      swap1\n      tag_12\n      jump\t// in\n    tag_11:\n      mload(0x40)\n      dup1\n      swap2\n      sub\n      swap1\n      return\n        /* \"contracts/hello.sol\":108:192  function setUserName(string memory userName) public {... */\n    tag_8:\n        /* \"contracts/hello.sol\":177:185  userName */\n      dup1\n        /* \"contracts/hello.sol\":170:174  name */\n      0x00\n        /* \"contracts/hello.sol\":170:185  name = userName */\n      swap1\n      dup1\n      mload\n      swap1\n      0x20\n      add\n      swap1\n      tag_14\n      swap3\n      swap2\n      swap1\n      tag_15\n      jump\t// in\n    tag_14:\n      pop\n        /* \"contracts/hello.sol\":108:192  function setUserName(string memory userName) public {... */\n      pop\n      jump\t// out\n        /* \"contracts/hello.sol\":198:565  function printMessage() public view returns(string memory) {... */\n    tag_10:\n        /* \"contracts/hello.sol\":242:255  string memory */\n      0x60\n        /* \"contracts/hello.sol\":267:294  bytes memory concat_strings */\n      dup1\n        /* \"contracts/hello.sol\":321:347  abi.encodePacked(\"Hello \") */\n      add(0x20, mload(0x40))\n      tag_17\n      swap1\n      tag_18\n      jump\t// in\n    tag_17:\n      mload(0x40)\n      0x20\n      dup2\n      dup4\n      sub\n      sub\n      dup2\n      mstore\n      swap1\n      0x40\n      mstore\n        /* \"contracts/hello.sol\":304:347  concat_strings = abi.encodePacked(\"Hello \") */\n      swap1\n      pop\n        /* \"contracts/hello.sol\":391:405  concat_strings */\n      dup1\n        /* \"contracts/hello.sol\":407:411  name */\n      0x00\n        /* \"contracts/hello.sol\":374:412  abi.encodePacked(concat_strings, name) */\n      add(0x20, mload(0x40))\n      tag_19\n      swap3\n      swap2\n      swap1\n      tag_20\n      jump\t// in\n    tag_19:\n      mload(0x40)\n      0x20\n      dup2\n      dup4\n      sub\n      sub\n      dup2\n      mstore\n      swap1\n      0x40\n      mstore\n        /* \"contracts/hello.sol\":357:412  concat_strings = abi.encodePacked(concat_strings, name) */\n      swap1\n      pop\n        /* \"contracts/hello.sol\":456:470  concat_strings */\n      dup1\n        /* \"contracts/hello.sol\":439:476  abi.encodePacked(concat_strings, \"!\") */\n      add(0x20, mload(0x40))\n      tag_21\n      swap2\n      swap1\n      tag_22\n      jump\t// in\n    tag_21:\n      mload(0x40)\n      0x20\n      dup2\n      dup4\n      sub\n      sub\n      dup2\n      mstore\n      swap1\n      0x40\n      mstore\n        /* \"contracts/hello.sol\":422:476  concat_strings = abi.encodePacked(concat_strings, \"!\") */\n      swap1\n      pop\n        /* \"contracts/hello.sol\":486:507  string memory message */\n      0x00\n        /* \"contracts/hello.sol\":517:531  concat_strings */\n      dup2\n        /* \"contracts/hello.sol\":486:532  string memory message = string(concat_strings) */\n      swap1\n      pop\n        /* \"contracts/hello.sol\":550:557  message */\n      dup1\n        /* \"contracts/hello.sol\":543:557  return message */\n      swap3\n      pop\n      pop\n      pop\n        /* \"contracts/hello.sol\":198:565  function printMessage() public view returns(string memory) {... */\n      swap1\n      jump\t// out\n    tag_15:\n      dup3\n      dup1\n      sload\n      tag_23\n      swap1\n      tag_24\n      jump\t// in\n    tag_23:\n      swap1\n      0x00\n      mstore\n      keccak256(0x00, 0x20)\n      swap1\n      0x1f\n      add\n      0x20\n      swap1\n      div\n      dup2\n      add\n      swap3\n      dup3\n      tag_26\n      jumpi\n      0x00\n      dup6\n      sstore\n      jump(tag_25)\n    tag_26:\n      dup3\n      0x1f\n      lt\n      tag_27\n      jumpi\n      dup1\n      mload\n      not(0xff)\n      and\n      dup4\n      dup1\n      add\n      or\n      dup6\n      sstore\n      jump(tag_25)\n    tag_27:\n      dup3\n      dup1\n      add\n      0x01\n      add\n      dup6\n      sstore\n      dup3\n      iszero\n      tag_25\n      jumpi\n      swap2\n      dup3\n      add\n    tag_28:\n      dup3\n      dup2\n      gt\n      iszero\n      tag_29\n      jumpi\n      dup3\n      mload\n      dup3\n      sstore\n      swap2\n      0x20\n      add\n      swap2\n      swap1\n      0x01\n      add\n      swap1\n      jump(tag_28)\n    tag_29:\n    tag_25:\n      pop\n      swap1\n      pop\n      tag_30\n      swap2\n      swap1\n      tag_31\n      jump\t// in\n    tag_30:\n      pop\n      swap1\n      jump\t// out\n    tag_31:\n    tag_32:\n      dup1\n      dup3\n      gt\n      iszero\n      tag_33\n      jumpi\n      0x00\n      dup2\n      0x00\n      swap1\n      sstore\n      pop\n      0x01\n      add\n      jump(tag_32)\n    tag_33:\n      pop\n      swap1\n      jump\t// out\n        /* \"#utility.yul\":7:351   */\n    tag_35:\n      0x00\n        /* \"#utility.yul\":110:175   */\n      tag_37\n        /* \"#utility.yul\":125:174   */\n      tag_38\n        /* \"#utility.yul\":167:173   */\n      dup5\n        /* \"#utility.yul\":125:174   */\n      tag_39\n      jump\t// in\n    tag_38:\n        /* \"#utility.yul\":110:175   */\n      tag_40\n      jump\t// in\n    tag_37:\n        /* \"#utility.yul\":101:175   */\n      swap1\n      pop\n        /* \"#utility.yul\":198:204   */\n      dup3\n        /* \"#utility.yul\":191:196   */\n      dup2\n        /* \"#utility.yul\":184:205   */\n      mstore\n        /* \"#utility.yul\":236:240   */\n      0x20\n        /* \"#utility.yul\":229:234   */\n      dup2\n        /* \"#utility.yul\":225:241   */\n      add\n        /* \"#utility.yul\":274:277   */\n      dup5\n        /* \"#utility.yul\":265:271   */\n      dup5\n        /* \"#utility.yul\":260:263   */\n      dup5\n        /* \"#utility.yul\":256:272   */\n      add\n        /* \"#utility.yul\":253:278   */\n      gt\n        /* \"#utility.yul\":250:252   */\n      iszero\n      tag_41\n      jumpi\n        /* \"#utility.yul\":291:292   */\n      0x00\n        /* \"#utility.yul\":288:289   */\n      dup1\n        /* \"#utility.yul\":281:293   */\n      revert\n        /* \"#utility.yul\":250:252   */\n    tag_41:\n        /* \"#utility.yul\":304:345   */\n      tag_42\n        /* \"#utility.yul\":338:344   */\n      dup5\n        /* \"#utility.yul\":333:336   */\n      dup3\n        /* \"#utility.yul\":328:331   */\n      dup6\n        /* \"#utility.yul\":304:345   */\n      tag_43\n      jump\t// in\n    tag_42:\n        /* \"#utility.yul\":91:351   */\n      pop\n      swap4\n      swap3\n      pop\n      pop\n      pop\n      jump\t// out\n        /* \"#utility.yul\":371:644   */\n    tag_44:\n      0x00\n        /* \"#utility.yul\":476:479   */\n      dup3\n        /* \"#utility.yul\":469:473   */\n      0x1f\n        /* \"#utility.yul\":461:467   */\n      dup4\n        /* \"#utility.yul\":457:474   */\n      add\n        /* \"#utility.yul\":453:480   */\n      slt\n        /* \"#utility.yul\":443:445   */\n      tag_46\n      jumpi\n        /* \"#utility.yul\":494:495   */\n      0x00\n        /* \"#utility.yul\":491:492   */\n      dup1\n        /* \"#utility.yul\":484:496   */\n      revert\n        /* \"#utility.yul\":443:445   */\n    tag_46:\n        /* \"#utility.yul\":534:540   */\n      dup2\n        /* \"#utility.yul\":521:541   */\n      calldataload\n        /* \"#utility.yul\":559:638   */\n      tag_47\n        /* \"#utility.yul\":634:637   */\n      dup5\n        /* \"#utility.yul\":626:632   */\n      dup3\n        /* \"#utility.yul\":619:623   */\n      0x20\n        /* \"#utility.yul\":611:617   */\n      dup7\n        /* \"#utility.yul\":607:624   */\n      add\n        /* \"#utility.yul\":559:638   */\n      tag_35\n      jump\t// in\n    tag_47:\n        /* \"#utility.yul\":550:638   */\n      swap2\n      pop\n        /* \"#utility.yul\":433:644   */\n      pop\n      swap3\n      swap2\n      pop\n      pop\n      jump\t// out\n        /* \"#utility.yul\":650:1025   */\n    tag_7:\n      0x00\n        /* \"#utility.yul\":768:770   */\n      0x20\n        /* \"#utility.yul\":756:765   */\n      dup3\n        /* \"#utility.yul\":747:754   */\n      dup5\n        /* \"#utility.yul\":743:766   */\n      sub\n        /* \"#utility.yul\":739:771   */\n      slt\n        /* \"#utility.yul\":736:738   */\n      iszero\n      tag_49\n      jumpi\n        /* \"#utility.yul\":784:785   */\n      0x00\n        /* \"#utility.yul\":781:782   */\n      dup1\n        /* \"#utility.yul\":774:786   */\n      revert\n        /* \"#utility.yul\":736:738   */\n    tag_49:\n        /* \"#utility.yul\":855:856   */\n      0x00\n        /* \"#utility.yul\":844:853   */\n      dup3\n        /* \"#utility.yul\":840:857   */\n      add\n        /* \"#utility.yul\":827:858   */\n      calldataload\n        /* \"#utility.yul\":885:903   */\n      0xffffffffffffffff\n        /* \"#utility.yul\":877:883   */\n      dup2\n        /* \"#utility.yul\":874:904   */\n      gt\n        /* \"#utility.yul\":871:873   */\n      iszero\n      tag_50\n      jumpi\n        /* \"#utility.yul\":917:918   */\n      0x00\n        /* \"#utility.yul\":914:915   */\n      dup1\n        /* \"#utility.yul\":907:919   */\n      revert\n        /* \"#utility.yul\":871:873   */\n    tag_50:\n        /* \"#utility.yul\":945:1008   */\n      tag_51\n        /* \"#utility.yul\":1000:1007   */\n      dup5\n        /* \"#utility.yul\":991:997   */\n      dup3\n        /* \"#utility.yul\":980:989   */\n      dup6\n        /* \"#utility.yul\":976:998   */\n      add\n        /* \"#utility.yul\":945:1008   */\n      tag_44\n      jump\t// in\n    tag_51:\n        /* \"#utility.yul\":935:1008   */\n      swap2\n      pop\n        /* \"#utility.yul\":798:1018   */\n      pop\n        /* \"#utility.yul\":726:1025   */\n      swap3\n      swap2\n      pop\n      pop\n      jump\t// out\n        /* \"#utility.yul\":1031:1404   */\n    tag_52:\n      0x00\n        /* \"#utility.yul\":1163:1201   */\n      tag_54\n        /* \"#utility.yul\":1195:1200   */\n      dup3\n        /* \"#utility.yul\":1163:1201   */\n      tag_55\n      jump\t// in\n    tag_54:\n        /* \"#utility.yul\":1217:1305   */\n      tag_56\n        /* \"#utility.yul\":1298:1304   */\n      dup2\n        /* \"#utility.yul\":1293:1296   */\n      dup6\n        /* \"#utility.yul\":1217:1305   */\n      tag_57\n      jump\t// in\n    tag_56:\n        /* \"#utility.yul\":1210:1305   */\n      swap4\n      pop\n        /* \"#utility.yul\":1314:1366   */\n      tag_58\n        /* \"#utility.yul\":1359:1365   */\n      dup2\n        /* \"#utility.yul\":1354:1357   */\n      dup6\n        /* \"#utility.yul\":1347:1351   */\n      0x20\n        /* \"#utility.yul\":1340:1345   */\n      dup7\n        /* \"#utility.yul\":1336:1352   */\n      add\n        /* \"#utility.yul\":1314:1366   */\n      tag_59\n      jump\t// in\n    tag_58:\n        /* \"#utility.yul\":1391:1397   */\n      dup1\n        /* \"#utility.yul\":1386:1389   */\n      dup5\n        /* \"#utility.yul\":1382:1398   */\n      add\n        /* \"#utility.yul\":1375:1398   */\n      swap2\n      pop\n        /* \"#utility.yul\":1139:1404   */\n      pop\n      swap3\n      swap2\n      pop\n      pop\n      jump\t// out\n        /* \"#utility.yul\":1410:1774   */\n    tag_60:\n      0x00\n        /* \"#utility.yul\":1526:1565   */\n      tag_62\n        /* \"#utility.yul\":1559:1564   */\n      dup3\n        /* \"#utility.yul\":1526:1565   */\n      tag_63\n      jump\t// in\n    tag_62:\n        /* \"#utility.yul\":1581:1652   */\n      tag_64\n        /* \"#utility.yul\":1645:1651   */\n      dup2\n        /* \"#utility.yul\":1640:1643   */\n      dup6\n        /* \"#utility.yul\":1581:1652   */\n      tag_65\n      jump\t// in\n    tag_64:\n        /* \"#utility.yul\":1574:1652   */\n      swap4\n      pop\n        /* \"#utility.yul\":1661:1713   */\n      tag_66\n        /* \"#utility.yul\":1706:1712   */\n      dup2\n        /* \"#utility.yul\":1701:1704   */\n      dup6\n        /* \"#utility.yul\":1694:1698   */\n      0x20\n        /* \"#utility.yul\":1687:1692   */\n      dup7\n        /* \"#utility.yul\":1683:1699   */\n      add\n        /* \"#utility.yul\":1661:1713   */\n      tag_59\n      jump\t// in\n    tag_66:\n        /* \"#utility.yul\":1738:1767   */\n      tag_67\n        /* \"#utility.yul\":1760:1766   */\n      dup2\n        /* \"#utility.yul\":1738:1767   */\n      tag_68\n      jump\t// in\n    tag_67:\n        /* \"#utility.yul\":1733:1736   */\n      dup5\n        /* \"#utility.yul\":1729:1768   */\n      add\n        /* \"#utility.yul\":1722:1768   */\n      swap2\n      pop\n        /* \"#utility.yul\":1502:1774   */\n      pop\n      swap3\n      swap2\n      pop\n      pop\n      jump\t// out\n        /* \"#utility.yul\":1804:2649   */\n    tag_69:\n      0x00\n        /* \"#utility.yul\":1944:1949   */\n      dup2\n        /* \"#utility.yul\":1938:1950   */\n      sload\n        /* \"#utility.yul\":1973:2009   */\n      tag_71\n        /* \"#utility.yul\":1999:2008   */\n      dup2\n        /* \"#utility.yul\":1973:2009   */\n      tag_24\n      jump\t// in\n    tag_71:\n        /* \"#utility.yul\":2025:2114   */\n      tag_72\n        /* \"#utility.yul\":2107:2113   */\n      dup2\n        /* \"#utility.yul\":2102:2105   */\n      dup7\n        /* \"#utility.yul\":2025:2114   */\n      tag_73\n      jump\t// in\n    tag_72:\n        /* \"#utility.yul\":2018:2114   */\n      swap5\n      pop\n        /* \"#utility.yul\":2145:2146   */\n      0x01\n        /* \"#utility.yul\":2134:2143   */\n      dup3\n        /* \"#utility.yul\":2130:2147   */\n      and\n        /* \"#utility.yul\":2161:2162   */\n      0x00\n        /* \"#utility.yul\":2156:2293   */\n      dup2\n      eq\n      tag_75\n      jumpi\n        /* \"#utility.yul\":2307:2308   */\n      0x01\n        /* \"#utility.yul\":2302:2643   */\n      dup2\n      eq\n      tag_76\n      jumpi\n        /* \"#utility.yul\":2123:2643   */\n      jump(tag_74)\n        /* \"#utility.yul\":2156:2293   */\n    tag_75:\n        /* \"#utility.yul\":2240:2244   */\n      0xff\n        /* \"#utility.yul\":2236:2245   */\n      not\n        /* \"#utility.yul\":2225:2234   */\n      dup4\n        /* \"#utility.yul\":2221:2246   */\n      and\n        /* \"#utility.yul\":2216:2219   */\n      dup7\n        /* \"#utility.yul\":2209:2247   */\n      mstore\n        /* \"#utility.yul\":2276:2282   */\n      dup2\n        /* \"#utility.yul\":2271:2274   */\n      dup7\n        /* \"#utility.yul\":2267:2283   */\n      add\n        /* \"#utility.yul\":2260:2283   */\n      swap4\n      pop\n        /* \"#utility.yul\":2156:2293   */\n      jump(tag_74)\n        /* \"#utility.yul\":2302:2643   */\n    tag_76:\n        /* \"#utility.yul\":2369:2407   */\n      tag_77\n        /* \"#utility.yul\":2401:2406   */\n      dup6\n        /* \"#utility.yul\":2369:2407   */\n      tag_78\n      jump\t// in\n    tag_77:\n        /* \"#utility.yul\":2429:2430   */\n      0x00\n        /* \"#utility.yul\":2443:2597   */\n    tag_79:\n        /* \"#utility.yul\":2457:2463   */\n      dup4\n        /* \"#utility.yul\":2454:2455   */\n      dup2\n        /* \"#utility.yul\":2451:2464   */\n      lt\n        /* \"#utility.yul\":2443:2597   */\n      iszero\n      tag_81\n      jumpi\n        /* \"#utility.yul\":2531:2538   */\n      dup2\n        /* \"#utility.yul\":2525:2539   */\n      sload\n        /* \"#utility.yul\":2521:2522   */\n      dup2\n        /* \"#utility.yul\":2516:2519   */\n      dup10\n        /* \"#utility.yul\":2512:2523   */\n      add\n        /* \"#utility.yul\":2505:2540   */\n      mstore\n        /* \"#utility.yul\":2581:2582   */\n      0x01\n        /* \"#utility.yul\":2572:2579   */\n      dup3\n        /* \"#utility.yul\":2568:2583   */\n      add\n        /* \"#utility.yul\":2557:2583   */\n      swap2\n      pop\n        /* \"#utility.yul\":2479:2483   */\n      0x20\n        /* \"#utility.yul\":2476:2477   */\n      dup2\n        /* \"#utility.yul\":2472:2484   */\n      add\n        /* \"#utility.yul\":2467:2484   */\n      swap1\n      pop\n        /* \"#utility.yul\":2443:2597   */\n      jump(tag_79)\n    tag_81:\n        /* \"#utility.yul\":2626:2632   */\n      dup4\n        /* \"#utility.yul\":2621:2624   */\n      dup9\n        /* \"#utility.yul\":2617:2633   */\n      add\n        /* \"#utility.yul\":2610:2633   */\n      swap6\n      pop\n        /* \"#utility.yul\":2309:2643   */\n      pop\n      pop\n        /* \"#utility.yul\":2123:2643   */\n    tag_74:\n      pop\n        /* \"#utility.yul\":1911:2649   */\n      pop\n      pop\n      swap3\n      swap2\n      pop\n      pop\n      jump\t// out\n        /* \"#utility.yul\":2655:2988   */\n    tag_82:\n      0x00\n        /* \"#utility.yul\":2836:2920   */\n      tag_84\n        /* \"#utility.yul\":2918:2919   */\n      0x01\n        /* \"#utility.yul\":2913:2916   */\n      dup4\n        /* \"#utility.yul\":2836:2920   */\n      tag_73\n      jump\t// in\n    tag_84:\n        /* \"#utility.yul\":2829:2920   */\n      swap2\n      pop\n        /* \"#utility.yul\":2950:2953   */\n      0x2100000000000000000000000000000000000000000000000000000000000000\n        /* \"#utility.yul\":2946:2947   */\n      0x00\n        /* \"#utility.yul\":2941:2944   */\n      dup4\n        /* \"#utility.yul\":2937:2948   */\n      add\n        /* \"#utility.yul\":2930:2954   */\n      mstore\n        /* \"#utility.yul\":2980:2981   */\n      0x01\n        /* \"#utility.yul\":2975:2978   */\n      dup3\n        /* \"#utility.yul\":2971:2982   */\n      add\n        /* \"#utility.yul\":2964:2982   */\n      swap1\n      pop\n        /* \"#utility.yul\":2819:2988   */\n      swap2\n      swap1\n      pop\n      jump\t// out\n        /* \"#utility.yul\":2994:3332   */\n    tag_85:\n      0x00\n        /* \"#utility.yul\":3175:3259   */\n      tag_87\n        /* \"#utility.yul\":3257:3258   */\n      0x06\n        /* \"#utility.yul\":3252:3255   */\n      dup4\n        /* \"#utility.yul\":3175:3259   */\n      tag_73\n      jump\t// in\n    tag_87:\n        /* \"#utility.yul\":3168:3259   */\n      swap2\n      pop\n        /* \"#utility.yul\":3289:3297   */\n      0x48656c6c6f200000000000000000000000000000000000000000000000000000\n        /* \"#utility.yul\":3285:3286   */\n      0x00\n        /* \"#utility.yul\":3280:3283   */\n      dup4\n        /* \"#utility.yul\":3276:3287   */\n      add\n        /* \"#utility.yul\":3269:3298   */\n      mstore\n        /* \"#utility.yul\":3324:3325   */\n      0x06\n        /* \"#utility.yul\":3319:3322   */\n      dup3\n        /* \"#utility.yul\":3315:3326   */\n      add\n        /* \"#utility.yul\":3308:3326   */\n      swap1\n      pop\n        /* \"#utility.yul\":3158:3332   */\n      swap2\n      swap1\n      pop\n      jump\t// out\n        /* \"#utility.yul\":3338:3763   */\n    tag_20:\n      0x00\n        /* \"#utility.yul\":3535:3628   */\n      tag_89\n        /* \"#utility.yul\":3624:3627   */\n      dup3\n        /* \"#utility.yul\":3615:3621   */\n      dup6\n        /* \"#utility.yul\":3535:3628   */\n      tag_52\n      jump\t// in\n    tag_89:\n        /* \"#utility.yul\":3528:3628   */\n      swap2\n      pop\n        /* \"#utility.yul\":3645:3737   */\n      tag_90\n        /* \"#utility.yul\":3733:3736   */\n      dup3\n        /* \"#utility.yul\":3724:3730   */\n      dup5\n        /* \"#utility.yul\":3645:3737   */\n      tag_69\n      jump\t// in\n    tag_90:\n        /* \"#utility.yul\":3638:3737   */\n      swap2\n      pop\n        /* \"#utility.yul\":3754:3757   */\n      dup2\n        /* \"#utility.yul\":3747:3757   */\n      swap1\n      pop\n        /* \"#utility.yul\":3517:3763   */\n      swap4\n      swap3\n      pop\n      pop\n      pop\n      jump\t// out\n        /* \"#utility.yul\":3769:4306   */\n    tag_22:\n      0x00\n        /* \"#utility.yul\":4022:4115   */\n      tag_92\n        /* \"#utility.yul\":4111:4114   */\n      dup3\n        /* \"#utility.yul\":4102:4108   */\n      dup5\n        /* \"#utility.yul\":4022:4115   */\n      tag_52\n      jump\t// in\n    tag_92:\n        /* \"#utility.yul\":4015:4115   */\n      swap2\n      pop\n        /* \"#utility.yul\":4132:4280   */\n      tag_93\n        /* \"#utility.yul\":4276:4279   */\n      dup3\n        /* \"#utility.yul\":4132:4280   */\n      tag_82\n      jump\t// in\n    tag_93:\n        /* \"#utility.yul\":4125:4280   */\n      swap2\n      pop\n        /* \"#utility.yul\":4297:4300   */\n      dup2\n        /* \"#utility.yul\":4290:4300   */\n      swap1\n      pop\n        /* \"#utility.yul\":4004:4306   */\n      swap3\n      swap2\n      pop\n      pop\n      jump\t// out\n        /* \"#utility.yul\":4312:4693   */\n    tag_18:\n      0x00\n        /* \"#utility.yul\":4519:4667   */\n      tag_95\n        /* \"#utility.yul\":4663:4666   */\n      dup3\n        /* \"#utility.yul\":4519:4667   */\n      tag_85\n      jump\t// in\n    tag_95:\n        /* \"#utility.yul\":4512:4667   */\n      swap2\n      pop\n        /* \"#utility.yul\":4684:4687   */\n      dup2\n        /* \"#utility.yul\":4677:4687   */\n      swap1\n      pop\n        /* \"#utility.yul\":4501:4693   */\n      swap2\n      swap1\n      pop\n      jump\t// out\n        /* \"#utility.yul\":4699:5012   */\n    tag_12:\n      0x00\n        /* \"#utility.yul\":4850:4852   */\n      0x20\n        /* \"#utility.yul\":4839:4848   */\n      dup3\n        /* \"#utility.yul\":4835:4853   */\n      add\n        /* \"#utility.yul\":4827:4853   */\n      swap1\n      pop\n        /* \"#utility.yul\":4899:4908   */\n      dup2\n        /* \"#utility.yul\":4893:4897   */\n      dup2\n        /* \"#utility.yul\":4889:4909   */\n      sub\n        /* \"#utility.yul\":4885:4886   */\n      0x00\n        /* \"#utility.yul\":4874:4883   */\n      dup4\n        /* \"#utility.yul\":4870:4887   */\n      add\n        /* \"#utility.yul\":4863:4910   */\n      mstore\n        /* \"#utility.yul\":4927:5005   */\n      tag_97\n        /* \"#utility.yul\":5000:5004   */\n      dup2\n        /* \"#utility.yul\":4991:4997   */\n      dup5\n        /* \"#utility.yul\":4927:5005   */\n      tag_60\n      jump\t// in\n    tag_97:\n        /* \"#utility.yul\":4919:5005   */\n      swap1\n      pop\n        /* \"#utility.yul\":4817:5012   */\n      swap3\n      swap2\n      pop\n      pop\n      jump\t// out\n        /* \"#utility.yul\":5018:5301   */\n    tag_40:\n      0x00\n        /* \"#utility.yul\":5084:5086   */\n      0x40\n        /* \"#utility.yul\":5078:5087   */\n      mload\n        /* \"#utility.yul\":5068:5087   */\n      swap1\n      pop\n        /* \"#utility.yul\":5126:5130   */\n      dup2\n        /* \"#utility.yul\":5118:5124   */\n      dup2\n        /* \"#utility.yul\":5114:5131   */\n      add\n        /* \"#utility.yul\":5233:5239   */\n      dup2\n        /* \"#utility.yul\":5221:5231   */\n      dup2\n        /* \"#utility.yul\":5218:5240   */\n      lt\n        /* \"#utility.yul\":5197:5215   */\n      0xffffffffffffffff\n        /* \"#utility.yul\":5185:5195   */\n      dup3\n        /* \"#utility.yul\":5182:5216   */\n      gt\n        /* \"#utility.yul\":5179:5241   */\n      or\n        /* \"#utility.yul\":5176:5178   */\n      iszero\n      tag_99\n      jumpi\n        /* \"#utility.yul\":5244:5262   */\n      tag_100\n      tag_101\n      jump\t// in\n    tag_100:\n        /* \"#utility.yul\":5176:5178   */\n    tag_99:\n        /* \"#utility.yul\":5284:5294   */\n      dup1\n        /* \"#utility.yul\":5280:5282   */\n      0x40\n        /* \"#utility.yul\":5273:5295   */\n      mstore\n        /* \"#utility.yul\":5058:5301   */\n      pop\n      swap2\n      swap1\n      pop\n      jump\t// out\n        /* \"#utility.yul\":5307:5639   */\n    tag_39:\n      0x00\n        /* \"#utility.yul\":5459:5477   */\n      0xffffffffffffffff\n        /* \"#utility.yul\":5451:5457   */\n      dup3\n        /* \"#utility.yul\":5448:5478   */\n      gt\n        /* \"#utility.yul\":5445:5447   */\n      iszero\n      tag_103\n      jumpi\n        /* \"#utility.yul\":5481:5499   */\n      tag_104\n      tag_101\n      jump\t// in\n    tag_104:\n        /* \"#utility.yul\":5445:5447   */\n    tag_103:\n        /* \"#utility.yul\":5566:5570   */\n      0x1f\n        /* \"#utility.yul\":5562:5571   */\n      not\n        /* \"#utility.yul\":5555:5559   */\n      0x1f\n        /* \"#utility.yul\":5547:5553   */\n      dup4\n        /* \"#utility.yul\":5543:5560   */\n      add\n        /* \"#utility.yul\":5539:5572   */\n      and\n        /* \"#utility.yul\":5531:5572   */\n      swap1\n      pop\n        /* \"#utility.yul\":5627:5631   */\n      0x20\n        /* \"#utility.yul\":5621:5625   */\n      dup2\n        /* \"#utility.yul\":5617:5632   */\n      add\n        /* \"#utility.yul\":5609:5632   */\n      swap1\n      pop\n        /* \"#utility.yul\":5374:5639   */\n      swap2\n      swap1\n      pop\n      jump\t// out\n        /* \"#utility.yul\":5645:5786   */\n    tag_78:\n      0x00\n        /* \"#utility.yul\":5717:5720   */\n      dup2\n        /* \"#utility.yul\":5709:5720   */\n      swap1\n      pop\n        /* \"#utility.yul\":5740:5743   */\n      dup2\n        /* \"#utility.yul\":5737:5738   */\n      0x00\n        /* \"#utility.yul\":5730:5744   */\n      mstore\n        /* \"#utility.yul\":5774:5778   */\n      0x20\n        /* \"#utility.yul\":5771:5772   */\n      0x00\n        /* \"#utility.yul\":5761:5779   */\n      keccak256\n        /* \"#utility.yul\":5753:5779   */\n      swap1\n      pop\n        /* \"#utility.yul\":5699:5786   */\n      swap2\n      swap1\n      pop\n      jump\t// out\n        /* \"#utility.yul\":5792:5890   */\n    tag_55:\n      0x00\n        /* \"#utility.yul\":5877:5882   */\n      dup2\n        /* \"#utility.yul\":5871:5883   */\n      mload\n        /* \"#utility.yul\":5861:5883   */\n      swap1\n      pop\n        /* \"#utility.yul\":5850:5890   */\n      swap2\n      swap1\n      pop\n      jump\t// out\n        /* \"#utility.yul\":5896:5995   */\n    tag_63:\n      0x00\n        /* \"#utility.yul\":5982:5987   */\n      dup2\n        /* \"#utility.yul\":5976:5988   */\n      mload\n        /* \"#utility.yul\":5966:5988   */\n      swap1\n      pop\n        /* \"#utility.yul\":5955:5995   */\n      swap2\n      swap1\n      pop\n      jump\t// out\n        /* \"#utility.yul\":6001:6148   */\n    tag_57:\n      0x00\n        /* \"#utility.yul\":6139:6142   */\n      dup2\n        /* \"#utility.yul\":6124:6142   */\n      swap1\n      pop\n        /* \"#utility.yul\":6114:6148   */\n      swap3\n      swap2\n      pop\n      pop\n      jump\t// out\n        /* \"#utility.yul\":6154:6323   */\n    tag_65:\n      0x00\n        /* \"#utility.yul\":6272:6278   */\n      dup3\n        /* \"#utility.yul\":6267:6270   */\n      dup3\n        /* \"#utility.yul\":6260:6279   */\n      mstore\n        /* \"#utility.yul\":6312:6316   */\n      0x20\n        /* \"#utility.yul\":6307:6310   */\n      dup3\n        /* \"#utility.yul\":6303:6317   */\n      add\n        /* \"#utility.yul\":6288:6317   */\n      swap1\n      pop\n        /* \"#utility.yul\":6250:6323   */\n      swap3\n      swap2\n      pop\n      pop\n      jump\t// out\n        /* \"#utility.yul\":6329:6477   */\n    tag_73:\n      0x00\n        /* \"#utility.yul\":6468:6471   */\n      dup2\n        /* \"#utility.yul\":6453:6471   */\n      swap1\n      pop\n        /* \"#utility.yul\":6443:6477   */\n      swap3\n      swap2\n      pop\n      pop\n      jump\t// out\n        /* \"#utility.yul\":6483:6637   */\n    tag_43:\n        /* \"#utility.yul\":6567:6573   */\n      dup3\n        /* \"#utility.yul\":6562:6565   */\n      dup2\n        /* \"#utility.yul\":6557:6560   */\n      dup4\n        /* \"#utility.yul\":6544:6574   */\n      calldatacopy\n        /* \"#utility.yul\":6629:6630   */\n      0x00\n        /* \"#utility.yul\":6620:6626   */\n      dup4\n        /* \"#utility.yul\":6615:6618   */\n      dup4\n        /* \"#utility.yul\":6611:6627   */\n      add\n        /* \"#utility.yul\":6604:6631   */\n      mstore\n        /* \"#utility.yul\":6534:6637   */\n      pop\n      pop\n      pop\n      jump\t// out\n        /* \"#utility.yul\":6643:6950   */\n    tag_59:\n        /* \"#utility.yul\":6711:6712   */\n      0x00\n        /* \"#utility.yul\":6721:6834   */\n    tag_113:\n        /* \"#utility.yul\":6735:6741   */\n      dup4\n        /* \"#utility.yul\":6732:6733   */\n      dup2\n        /* \"#utility.yul\":6729:6742   */\n      lt\n        /* \"#utility.yul\":6721:6834   */\n      iszero\n      tag_115\n      jumpi\n        /* \"#utility.yul\":6820:6821   */\n      dup1\n        /* \"#utility.yul\":6815:6818   */\n      dup3\n        /* \"#utility.yul\":6811:6822   */\n      add\n        /* \"#utility.yul\":6805:6823   */\n      mload\n        /* \"#utility.yul\":6801:6802   */\n      dup2\n        /* \"#utility.yul\":6796:6799   */\n      dup5\n        /* \"#utility.yul\":6792:6803   */\n      add\n        /* \"#utility.yul\":6785:6824   */\n      mstore\n        /* \"#utility.yul\":6757:6759   */\n      0x20\n        /* \"#utility.yul\":6754:6755   */\n      dup2\n        /* \"#utility.yul\":6750:6760   */\n      add\n        /* \"#utility.yul\":6745:6760   */\n      swap1\n      pop\n        /* \"#utility.yul\":6721:6834   */\n      jump(tag_113)\n    tag_115:\n        /* \"#utility.yul\":6852:6858   */\n      dup4\n        /* \"#utility.yul\":6849:6850   */\n      dup2\n        /* \"#utility.yul\":6846:6859   */\n      gt\n        /* \"#utility.yul\":6843:6845   */\n      iszero\n      tag_116\n      jumpi\n        /* \"#utility.yul\":6932:6933   */\n      0x00\n        /* \"#utility.yul\":6923:6929   */\n      dup5\n        /* \"#utility.yul\":6918:6921   */\n      dup5\n        /* \"#utility.yul\":6914:6930   */\n      add\n        /* \"#utility.yul\":6907:6934   */\n      mstore\n        /* \"#utility.yul\":6843:6845   */\n    tag_116:\n        /* \"#utility.yul\":6692:6950   */\n      pop\n      pop\n      pop\n      pop\n      jump\t// out\n        /* \"#utility.yul\":6956:7276   */\n    tag_24:\n      0x00\n        /* \"#utility.yul\":7037:7038   */\n      0x02\n        /* \"#utility.yul\":7031:7035   */\n      dup3\n        /* \"#utility.yul\":7027:7039   */\n      div\n        /* \"#utility.yul\":7017:7039   */\n      swap1\n      pop\n        /* \"#utility.yul\":7084:7085   */\n      0x01\n        /* \"#utility.yul\":7078:7082   */\n      dup3\n        /* \"#utility.yul\":7074:7086   */\n      and\n        /* \"#utility.yul\":7105:7123   */\n      dup1\n        /* \"#utility.yul\":7095:7097   */\n      tag_118\n      jumpi\n        /* \"#utility.yul\":7161:7165   */\n      0x7f\n        /* \"#utility.yul\":7153:7159   */\n      dup3\n        /* \"#utility.yul\":7149:7166   */\n      and\n        /* \"#utility.yul\":7139:7166   */\n      swap2\n      pop\n        /* \"#utility.yul\":7095:7097   */\n    tag_118:\n        /* \"#utility.yul\":7223:7225   */\n      0x20\n        /* \"#utility.yul\":7215:7221   */\n      dup3\n        /* \"#utility.yul\":7212:7226   */\n      lt\n        /* \"#utility.yul\":7192:7210   */\n      dup2\n        /* \"#utility.yul\":7189:7227   */\n      eq\n        /* \"#utility.yul\":7186:7188   */\n      iszero\n      tag_119\n      jumpi\n        /* \"#utility.yul\":7242:7260   */\n      tag_120\n      tag_121\n      jump\t// in\n    tag_120:\n        /* \"#utility.yul\":7186:7188   */\n    tag_119:\n        /* \"#utility.yul\":7007:7276   */\n      pop\n      swap2\n      swap1\n      pop\n      jump\t// out\n        /* \"#utility.yul\":7282:7462   */\n    tag_121:\n        /* \"#utility.yul\":7330:7407   */\n      0x4e487b7100000000000000000000000000000000000000000000000000000000\n        /* \"#utility.yul\":7327:7328   */\n      0x00\n        /* \"#utility.yul\":7320:7408   */\n      mstore\n        /* \"#utility.yul\":7427:7431   */\n      0x22\n        /* \"#utility.yul\":7424:7425   */\n      0x04\n        /* \"#utility.yul\":7417:7432   */\n      mstore\n        /* \"#utility.yul\":7451:7455   */\n      0x24\n        /* \"#utility.yul\":7448:7449   */\n      0x00\n        /* \"#utility.yul\":7441:7456   */\n      revert\n        /* \"#utility.yul\":7468:7648   */\n    tag_101:\n        /* \"#utility.yul\":7516:7593   */\n      0x4e487b7100000000000000000000000000000000000000000000000000000000\n        /* \"#utility.yul\":7513:7514   */\n      0x00\n        /* \"#utility.yul\":7506:7594   */\n      mstore\n        /* \"#utility.yul\":7613:7617   */\n      0x41\n        /* \"#utility.yul\":7610:7611   */\n      0x04\n        /* \"#utility.yul\":7603:7618   */\n      mstore\n        /* \"#utility.yul\":7637:7641   */\n      0x24\n        /* \"#utility.yul\":7634:7635   */\n      0x00\n        /* \"#utility.yul\":7627:7642   */\n      revert\n        /* \"#utility.yul\":7654:7756   */\n    tag_68:\n      0x00\n        /* \"#utility.yul\":7746:7748   */\n      0x1f\n        /* \"#utility.yul\":7742:7749   */\n      not\n        /* \"#utility.yul\":7737:7739   */\n      0x1f\n        /* \"#utility.yul\":7730:7735   */\n      dup4\n        /* \"#utility.yul\":7726:7740   */\n      add\n        /* \"#utility.yul\":7722:7750   */\n      and\n        /* \"#utility.yul\":7712:7750   */\n      swap1\n      pop\n        /* \"#utility.yul\":7702:7756   */\n      swap2\n      swap1\n      pop\n      jump\t// out\n\n    auxdata: 0xa264697066735822122059fd11792b6c067d3cc22d1812d9d6858ed8123eeb6ccc901d0cab2cb732de6d64736f6c63430008000033\n}\n",
				"bytecode": {
					"linkReferences": {},
					"object": "608060405234801561001057600080fd5b50610604806100206000396000f3fe608060405234801561001057600080fd5b50600436106100365760003560e01c80632b5914fe1461003b57806354f8cd2e14610057575b600080fd5b61005560048036038101906100509190610211565b610075565b005b61005f61008f565b60405161006c9190610416565b60405180910390f35b806000908051906020019061008b929190610106565b5050565b6060806040516020016100a190610401565b60405160208183030381529060405290508060006040516020016100c69291906103bb565b6040516020818303038152906040529050806040516020016100e891906103df565b60405160208183030381529060405290506000819050809250505090565b8280546101129061052d565b90600052602060002090601f016020900481019282610134576000855561017b565b82601f1061014d57805160ff191683800117855561017b565b8280016001018555821561017b579182015b8281111561017a57825182559160200191906001019061015f565b5b509050610188919061018c565b5090565b5b808211156101a557600081600090555060010161018d565b5090565b60006101bc6101b784610469565b610438565b9050828152602081018484840111156101d457600080fd5b6101df8482856104eb565b509392505050565b600082601f8301126101f857600080fd5b81356102088482602086016101a9565b91505092915050565b60006020828403121561022357600080fd5b600082013567ffffffffffffffff81111561023d57600080fd5b610249848285016101e7565b91505092915050565b600061025d826104ae565b61026781856104c4565b93506102778185602086016104fa565b80840191505092915050565b600061028e826104b9565b61029881856104cf565b93506102a88185602086016104fa565b6102b1816105bd565b840191505092915050565b600081546102c98161052d565b6102d381866104e0565b945060018216600081146102ee57600181146102ff57610332565b60ff19831686528186019350610332565b61030885610499565b60005b8381101561032a5781548189015260018201915060208101905061030b565b838801955050505b50505092915050565b60006103486001836104e0565b91507f21000000000000000000000000000000000000000000000000000000000000006000830152600182019050919050565b60006103886006836104e0565b91507f48656c6c6f2000000000000000000000000000000000000000000000000000006000830152600682019050919050565b60006103c78285610252565b91506103d382846102bc565b91508190509392505050565b60006103eb8284610252565b91506103f68261033b565b915081905092915050565b600061040c8261037b565b9150819050919050565b600060208201905081810360008301526104308184610283565b905092915050565b6000604051905081810181811067ffffffffffffffff8211171561045f5761045e61058e565b5b8060405250919050565b600067ffffffffffffffff8211156104845761048361058e565b5b601f19601f8301169050602081019050919050565b60008190508160005260206000209050919050565b600081519050919050565b600081519050919050565b600081905092915050565b600082825260208201905092915050565b600081905092915050565b82818337600083830152505050565b60005b838110156105185780820151818401526020810190506104fd565b83811115610527576000848401525b50505050565b6000600282049050600182168061054557607f821691505b602082108114156105595761055861055f565b5b50919050565b7f4e487b7100000000000000000000000000000000000000000000000000000000600052602260045260246000fd5b7f4e487b7100000000000000000000000000000000000000000000000000000000600052604160045260246000fd5b6000601f19601f830116905091905056fea264697066735822122059fd11792b6c067d3cc22d1812d9d6858ed8123eeb6ccc901d0cab2cb732de6d64736f6c63430008000033",
					"opcodes": "PUSH1 0x80 PUSH1 0x40 MSTORE CALLVALUE DUP1 ISZERO PUSH2 0x10 JUMPI PUSH1 0x0 DUP1 REVERT JUMPDEST POP PUSH2 0x604 DUP1 PUSH2 0x20 PUSH1 0x0 CODECOPY PUSH1 0x0 RETURN INVALID PUSH1 0x80 PUSH1 0x40 MSTORE CALLVALUE DUP1 ISZERO PUSH2 0x10 JUMPI PUSH1 0x0 DUP1 REVERT JUMPDEST POP PUSH1 0x4 CALLDATASIZE LT PUSH2 0x36 JUMPI PUSH1 0x0 CALLDATALOAD PUSH1 0xE0 SHR DUP1 PUSH4 0x2B5914FE EQ PUSH2 0x3B JUMPI DUP1 PUSH4 0x54F8CD2E EQ PUSH2 0x57 JUMPI JUMPDEST PUSH1 0x0 DUP1 REVERT JUMPDEST PUSH2 0x55 PUSH1 0x4 DUP1 CALLDATASIZE SUB DUP2 ADD SWAP1 PUSH2 0x50 SWAP2 SWAP1 PUSH2 0x211 JUMP JUMPDEST PUSH2 0x75 JUMP JUMPDEST STOP JUMPDEST PUSH2 0x5F PUSH2 0x8F JUMP JUMPDEST PUSH1 0x40 MLOAD PUSH2 0x6C SWAP2 SWAP1 PUSH2 0x416 JUMP JUMPDEST PUSH1 0x40 MLOAD DUP1 SWAP2 SUB SWAP1 RETURN JUMPDEST DUP1 PUSH1 0x0 SWAP1 DUP1 MLOAD SWAP1 PUSH1 0x20 ADD SWAP1 PUSH2 0x8B SWAP3 SWAP2 SWAP1 PUSH2 0x106 JUMP JUMPDEST POP POP JUMP JUMPDEST PUSH1 0x60 DUP1 PUSH1 0x40 MLOAD PUSH1 0x20 ADD PUSH2 0xA1 SWAP1 PUSH2 0x401 JUMP JUMPDEST PUSH1 0x40 MLOAD PUSH1 0x20 DUP2 DUP4 SUB SUB DUP2 MSTORE SWAP1 PUSH1 0x40 MSTORE SWAP1 POP DUP1 PUSH1 0x0 PUSH1 0x40 MLOAD PUSH1 0x20 ADD PUSH2 0xC6 SWAP3 SWAP2 SWAP1 PUSH2 0x3BB JUMP JUMPDEST PUSH1 0x40 MLOAD PUSH1 0x20 DUP2 DUP4 SUB SUB DUP2 MSTORE SWAP1 PUSH1 0x40 MSTORE SWAP1 POP DUP1 PUSH1 0x40 MLOAD PUSH1 0x20 ADD PUSH2 0xE8 SWAP2 SWAP1 PUSH2 0x3DF JUMP JUMPDEST PUSH1 0x40 MLOAD PUSH1 0x20 DUP2 DUP4 SUB SUB DUP2 MSTORE SWAP1 PUSH1 0x40 MSTORE SWAP1 POP PUSH1 0x0 DUP2 SWAP1 POP DUP1 SWAP3 POP POP POP SWAP1 JUMP JUMPDEST DUP3 DUP1 SLOAD PUSH2 0x112 SWAP1 PUSH2 0x52D JUMP JUMPDEST SWAP1 PUSH1 0x0 MSTORE PUSH1 0x20 PUSH1 0x0 KECCAK256 SWAP1 PUSH1 0x1F ADD PUSH1 0x20 SWAP1 DIV DUP2 ADD SWAP3 DUP3 PUSH2 0x134 JUMPI PUSH1 0x0 DUP6 SSTORE PUSH2 0x17B JUMP JUMPDEST DUP3 PUSH1 0x1F LT PUSH2 0x14D JUMPI DUP1 MLOAD PUSH1 0xFF NOT AND DUP4 DUP1 ADD OR DUP6 SSTORE PUSH2 0x17B JUMP JUMPDEST DUP3 DUP1 ADD PUSH1 0x1 ADD DUP6 SSTORE DUP3 ISZERO PUSH2 0x17B JUMPI SWAP2 DUP3 ADD JUMPDEST DUP3 DUP2 GT ISZERO PUSH2 0x17A JUMPI DUP3 MLOAD DUP3 SSTORE SWAP2 PUSH1 0x20 ADD SWAP2 SWAP1 PUSH1 0x1 ADD SWAP1 PUSH2 0x15F JUMP JUMPDEST JUMPDEST POP SWAP1 POP PUSH2 0x188 SWAP2 SWAP1 PUSH2 0x18C JUMP JUMPDEST POP SWAP1 JUMP JUMPDEST JUMPDEST DUP1 DUP3 GT ISZERO PUSH2 0x1A5 JUMPI PUSH1 0x0 DUP2 PUSH1 0x0 SWAP1 SSTORE POP PUSH1 0x1 ADD PUSH2 0x18D JUMP JUMPDEST POP SWAP1 JUMP JUMPDEST PUSH1 0x0 PUSH2 0x1BC PUSH2 0x1B7 DUP5 PUSH2 0x469 JUMP JUMPDEST PUSH2 0x438 JUMP JUMPDEST SWAP1 POP DUP3 DUP2 MSTORE PUSH1 0x20 DUP2 ADD DUP5 DUP5 DUP5 ADD GT ISZERO PUSH2 0x1D4 JUMPI PUSH1 0x0 DUP1 REVERT JUMPDEST PUSH2 0x1DF DUP5 DUP3 DUP6 PUSH2 0x4EB JUMP JUMPDEST POP SWAP4 SWAP3 POP POP POP JUMP JUMPDEST PUSH1 0x0 DUP3 PUSH1 0x1F DUP4 ADD SLT PUSH2 0x1F8 JUMPI PUSH1 0x0 DUP1 REVERT JUMPDEST DUP2 CALLDATALOAD PUSH2 0x208 DUP5 DUP3 PUSH1 0x20 DUP7 ADD PUSH2 0x1A9 JUMP JUMPDEST SWAP2 POP POP SWAP3 SWAP2 POP POP JUMP JUMPDEST PUSH1 0x0 PUSH1 0x20 DUP3 DUP5 SUB SLT ISZERO PUSH2 0x223 JUMPI PUSH1 0x0 DUP1 REVERT JUMPDEST PUSH1 0x0 DUP3 ADD CALLDATALOAD PUSH8 0xFFFFFFFFFFFFFFFF DUP2 GT ISZERO PUSH2 0x23D JUMPI PUSH1 0x0 DUP1 REVERT JUMPDEST PUSH2 0x249 DUP5 DUP3 DUP6 ADD PUSH2 0x1E7 JUMP JUMPDEST SWAP2 POP POP SWAP3 SWAP2 POP POP JUMP JUMPDEST PUSH1 0x0 PUSH2 0x25D DUP3 PUSH2 0x4AE JUMP JUMPDEST PUSH2 0x267 DUP2 DUP6 PUSH2 0x4C4 JUMP JUMPDEST SWAP4 POP PUSH2 0x277 DUP2 DUP6 PUSH1 0x20 DUP7 ADD PUSH2 0x4FA JUMP JUMPDEST DUP1 DUP5 ADD SWAP2 POP POP SWAP3 SWAP2 POP POP JUMP JUMPDEST PUSH1 0x0 PUSH2 0x28E DUP3 PUSH2 0x4B9 JUMP JUMPDEST PUSH2 0x298 DUP2 DUP6 PUSH2 0x4CF JUMP JUMPDEST SWAP4 POP PUSH2 0x2A8 DUP2 DUP6 PUSH1 0x20 DUP7 ADD PUSH2 0x4FA JUMP JUMPDEST PUSH2 0x2B1 DUP2 PUSH2 0x5BD JUMP JUMPDEST DUP5 ADD SWAP2 POP POP SWAP3 SWAP2 POP POP JUMP JUMPDEST PUSH1 0x0 DUP2 SLOAD PUSH2 0x2C9 DUP2 PUSH2 0x52D JUMP JUMPDEST PUSH2 0x2D3 DUP2 DUP7 PUSH2 0x4E0 JUMP JUMPDEST SWAP5 POP PUSH1 0x1 DUP3 AND PUSH1 0x0 DUP2 EQ PUSH2 0x2EE JUMPI PUSH1 0x1 DUP2 EQ PUSH2 0x2FF JUMPI PUSH2 0x332 JUMP JUMPDEST PUSH1 0xFF NOT DUP4 AND DUP7 MSTORE DUP2 DUP7 ADD SWAP4 POP PUSH2 0x332 JUMP JUMPDEST PUSH2 0x308 DUP6 PUSH2 0x499 JUMP JUMPDEST PUSH1 0x0 JUMPDEST DUP4 DUP2 LT ISZERO PUSH2 0x32A JUMPI DUP2 SLOAD DUP2 DUP10 ADD MSTORE PUSH1 0x1 DUP3 ADD SWAP2 POP PUSH1 0x20 DUP2 ADD SWAP1 POP PUSH2 0x30B JUMP JUMPDEST DUP4 DUP9 ADD SWAP6 POP POP POP JUMPDEST POP POP POP SWAP3 SWAP2 POP POP JUMP JUMPDEST PUSH1 0x0 PUSH2 0x348 PUSH1 0x1 DUP4 PUSH2 0x4E0 JUMP JUMPDEST SWAP2 POP PUSH32 0x2100000000000000000000000000000000000000000000000000000000000000 PUSH1 0x0 DUP4 ADD MSTORE PUSH1 0x1 DUP3 ADD SWAP1 POP SWAP2 SWAP1 POP JUMP JUMPDEST PUSH1 0x0 PUSH2 0x388 PUSH1 0x6 DUP4 PUSH2 0x4E0 JUMP JUMPDEST SWAP2 POP PUSH32 0x48656C6C6F200000000000000000000000000000000000000000000000000000 PUSH1 0x0 DUP4 ADD MSTORE PUSH1 0x6 DUP3 ADD SWAP1 POP SWAP2 SWAP1 POP JUMP JUMPDEST PUSH1 0x0 PUSH2 0x3C7 DUP3 DUP6 PUSH2 0x252 JUMP JUMPDEST SWAP2 POP PUSH2 0x3D3 DUP3 DUP5 PUSH2 0x2BC JUMP JUMPDEST SWAP2 POP DUP2 SWAP1 POP SWAP4 SWAP3 POP POP POP JUMP JUMPDEST PUSH1 0x0 PUSH2 0x3EB DUP3 DUP5 PUSH2 0x252 JUMP JUMPDEST SWAP2 POP PUSH2 0x3F6 DUP3 PUSH2 0x33B JUMP JUMPDEST SWAP2 POP DUP2 SWAP1 POP SWAP3 SWAP2 POP POP JUMP JUMPDEST PUSH1 0x0 PUSH2 0x40C DUP3 PUSH2 0x37B JUMP JUMPDEST SWAP2 POP DUP2 SWAP1 POP SWAP2 SWAP1 POP JUMP JUMPDEST PUSH1 0x0 PUSH1 0x20 DUP3 ADD SWAP1 POP DUP2 DUP2 SUB PUSH1 0x0 DUP4 ADD MSTORE PUSH2 0x430 DUP2 DUP5 PUSH2 0x283 JUMP JUMPDEST SWAP1 POP SWAP3 SWAP2 POP POP JUMP JUMPDEST PUSH1 0x0 PUSH1 0x40 MLOAD SWAP1 POP DUP2 DUP2 ADD DUP2 DUP2 LT PUSH8 0xFFFFFFFFFFFFFFFF DUP3 GT OR ISZERO PUSH2 0x45F JUMPI PUSH2 0x45E PUSH2 0x58E JUMP JUMPDEST JUMPDEST DUP1 PUSH1 0x40 MSTORE POP SWAP2 SWAP1 POP JUMP JUMPDEST PUSH1 0x0 PUSH8 0xFFFFFFFFFFFFFFFF DUP3 GT ISZERO PUSH2 0x484 JUMPI PUSH2 0x483 PUSH2 0x58E JUMP JUMPDEST JUMPDEST PUSH1 0x1F NOT PUSH1 0x1F DUP4 ADD AND SWAP1 POP PUSH1 0x20 DUP2 ADD SWAP1 POP SWAP2 SWAP1 POP JUMP JUMPDEST PUSH1 0x0 DUP2 SWAP1 POP DUP2 PUSH1 0x0 MSTORE PUSH1 0x20 PUSH1 0x0 KECCAK256 SWAP1 POP SWAP2 SWAP1 POP JUMP JUMPDEST PUSH1 0x0 DUP2 MLOAD SWAP1 POP SWAP2 SWAP1 POP JUMP JUMPDEST PUSH1 0x0 DUP2 MLOAD SWAP1 POP SWAP2 SWAP1 POP JUMP JUMPDEST PUSH1 0x0 DUP2 SWAP1 POP SWAP3 SWAP2 POP POP JUMP JUMPDEST PUSH1 0x0 DUP3 DUP3 MSTORE PUSH1 0x20 DUP3 ADD SWAP1 POP SWAP3 SWAP2 POP POP JUMP JUMPDEST PUSH1 0x0 DUP2 SWAP1 POP SWAP3 SWAP2 POP POP JUMP JUMPDEST DUP3 DUP2 DUP4 CALLDATACOPY PUSH1 0x0 DUP4 DUP4 ADD MSTORE POP POP POP JUMP JUMPDEST PUSH1 0x0 JUMPDEST DUP4 DUP2 LT ISZERO PUSH2 0x518 JUMPI DUP1 DUP3 ADD MLOAD DUP2 DUP5 ADD MSTORE PUSH1 0x20 DUP2 ADD SWAP1 POP PUSH2 0x4FD JUMP JUMPDEST DUP4 DUP2 GT ISZERO PUSH2 0x527 JUMPI PUSH1 0x0 DUP5 DUP5 ADD MSTORE JUMPDEST POP POP POP POP JUMP JUMPDEST PUSH1 0x0 PUSH1 0x2 DUP3 DIV SWAP1 POP PUSH1 0x1 DUP3 AND DUP1 PUSH2 0x545 JUMPI PUSH1 0x7F DUP3 AND SWAP2 POP JUMPDEST PUSH1 0x20 DUP3 LT DUP2 EQ ISZERO PUSH2 0x559 JUMPI PUSH2 0x558 PUSH2 0x55F JUMP JUMPDEST JUMPDEST POP SWAP2 SWAP1 POP JUMP JUMPDEST PUSH32 0x4E487B7100000000000000000000000000000000000000000000000000000000 PUSH1 0x0 MSTORE PUSH1 0x22 PUSH1 0x4 MSTORE PUSH1 0x24 PUSH1 0x0 REVERT JUMPDEST PUSH32 0x4E487B7100000000000000000000000000000000000000000000000000000000 PUSH1 0x0 MSTORE PUSH1 0x41 PUSH1 0x4 MSTORE PUSH1 0x24 PUSH1 0x0 REVERT JUMPDEST PUSH1 0x0 PUSH1 0x1F NOT PUSH1 0x1F DUP4 ADD AND SWAP1 POP SWAP2 SWAP1 POP JUMP INVALID LOG2 PUSH5 0x6970667358 0x22 SLT KECCAK256 MSIZE REVERT GT PUSH26 0x2B6C067D3CC22D1812D9D6858ED8123EEB6CCC901D0CAB2CB732 0xDE PUSH14 0x64736F6C63430008000033000000 "
				},
				"gasEstimates": {
					"creation": {
						"codeDepositCost": "308000",
						"executionCost": "349",
						"totalCost": "308349"
					},
					"external": {
						"printMessage()": "infinite",
						"setUserName(string)": "infinite"
					}
				},
				"methodIdentifiers": {
					"printMessage()": "54f8cd2e",
					"setUserName(string)": "2b5914fe"
				}
			},
			"storageLayout": {
				"storage": [
					{
						"astId": 3,
						"contract": "contracts/hello.sol:Main",
						"label": "name",
						"offset": 0,
						"slot": "0",
						"type": "t_string_storage"
					}
				],
				"types": {
					"t_string_storage": {
						"encoding": "bytes",
						"label": "string",
						"numberOfBytes": "32"
					}
				}
			},
			"userdoc": {
				"kind": "user",
				"methods": {},
				"version": 1
			}
		}
	}
}